{
  "_format": "hh-sol-artifact-1",
  "contractName": "NFTMarketplace",
  "sourceName": "contracts/NFTMarketplace.sol",
  "abi": [
    {
      "inputs": [],
      "stateMutability": "nonpayable",
      "type": "constructor"
    },
    {
      "anonymous": false,
      "inputs": [
        {
          "indexed": true,
          "internalType": "address",
          "name": "owner",
          "type": "address"
        },
        {
          "indexed": true,
          "internalType": "address",
          "name": "approved",
          "type": "address"
        },
        {
          "indexed": true,
          "internalType": "uint256",
          "name": "tokenId",
          "type": "uint256"
        }
      ],
      "name": "Approval",
      "type": "event"
    },
    {
      "anonymous": false,
      "inputs": [
        {
          "indexed": true,
          "internalType": "address",
          "name": "owner",
          "type": "address"
        },
        {
          "indexed": true,
          "internalType": "address",
          "name": "operator",
          "type": "address"
        },
        {
          "indexed": false,
          "internalType": "bool",
          "name": "approved",
          "type": "bool"
        }
      ],
      "name": "ApprovalForAll",
      "type": "event"
    },
    {
      "anonymous": false,
      "inputs": [
        {
          "indexed": true,
          "internalType": "uint256",
          "name": "tokenId",
          "type": "uint256"
        },
        {
          "indexed": false,
          "internalType": "address",
          "name": "owner",
          "type": "address"
        },
        {
          "indexed": false,
          "internalType": "address",
          "name": "seller",
          "type": "address"
        },
        {
          "indexed": false,
          "internalType": "uint256",
          "name": "price",
          "type": "uint256"
        },
        {
          "indexed": false,
          "internalType": "bool",
          "name": "currentlyListed",
          "type": "bool"
        }
      ],
      "name": "TokenListedSuccess",
      "type": "event"
    },
    {
      "anonymous": false,
      "inputs": [
        {
          "indexed": true,
          "internalType": "address",
          "name": "from",
          "type": "address"
        },
        {
          "indexed": true,
          "internalType": "address",
          "name": "to",
          "type": "address"
        },
        {
          "indexed": true,
          "internalType": "uint256",
          "name": "tokenId",
          "type": "uint256"
        }
      ],
      "name": "Transfer",
      "type": "event"
    },
    {
      "inputs": [
        {
          "internalType": "address",
          "name": "to",
          "type": "address"
        },
        {
          "internalType": "uint256",
          "name": "tokenId",
          "type": "uint256"
        }
      ],
      "name": "approve",
      "outputs": [],
      "stateMutability": "nonpayable",
      "type": "function"
    },
    {
      "inputs": [
        {
          "internalType": "address",
          "name": "owner",
          "type": "address"
        }
      ],
      "name": "balanceOf",
      "outputs": [
        {
          "internalType": "uint256",
          "name": "",
          "type": "uint256"
        }
      ],
      "stateMutability": "view",
      "type": "function"
    },
    {
      "inputs": [
        {
          "internalType": "string",
          "name": "tokenURI",
          "type": "string"
        },
        {
          "internalType": "uint256",
          "name": "price",
          "type": "uint256"
        }
      ],
      "name": "createToken",
      "outputs": [
        {
          "internalType": "uint256",
          "name": "",
          "type": "uint256"
        }
      ],
      "stateMutability": "payable",
      "type": "function"
    },
    {
      "inputs": [
        {
          "internalType": "uint256",
          "name": "tokenId",
          "type": "uint256"
        }
      ],
      "name": "deleteNFT",
      "outputs": [],
      "stateMutability": "nonpayable",
      "type": "function"
    },
    {
      "inputs": [
        {
          "internalType": "uint256",
          "name": "tokenId",
          "type": "uint256"
        }
      ],
      "name": "executeSale",
      "outputs": [],
      "stateMutability": "payable",
      "type": "function"
    },
    {
      "inputs": [],
      "name": "getAllNFTs",
      "outputs": [
        {
          "components": [
            {
              "internalType": "uint256",
              "name": "tokenId",
              "type": "uint256"
            },
            {
              "internalType": "address payable",
              "name": "owner",
              "type": "address"
            },
            {
              "internalType": "address payable",
              "name": "seller",
              "type": "address"
            },
            {
              "internalType": "uint256",
              "name": "price",
              "type": "uint256"
            },
            {
              "internalType": "bool",
              "name": "currentlyListed",
              "type": "bool"
            }
          ],
          "internalType": "struct NFTMarketplace.ListedToken[]",
          "name": "",
          "type": "tuple[]"
        }
      ],
      "stateMutability": "view",
      "type": "function"
    },
    {
      "inputs": [
        {
          "internalType": "uint256",
          "name": "tokenId",
          "type": "uint256"
        }
      ],
      "name": "getApproved",
      "outputs": [
        {
          "internalType": "address",
          "name": "",
          "type": "address"
        }
      ],
      "stateMutability": "view",
      "type": "function"
    },
    {
      "inputs": [],
      "name": "getCurrentToken",
      "outputs": [
        {
          "internalType": "uint256",
          "name": "",
          "type": "uint256"
        }
      ],
      "stateMutability": "view",
      "type": "function"
    },
    {
      "inputs": [],
      "name": "getLatestIdToListedToken",
      "outputs": [
        {
          "components": [
            {
              "internalType": "uint256",
              "name": "tokenId",
              "type": "uint256"
            },
            {
              "internalType": "address payable",
              "name": "owner",
              "type": "address"
            },
            {
              "internalType": "address payable",
              "name": "seller",
              "type": "address"
            },
            {
              "internalType": "uint256",
              "name": "price",
              "type": "uint256"
            },
            {
              "internalType": "bool",
              "name": "currentlyListed",
              "type": "bool"
            }
          ],
          "internalType": "struct NFTMarketplace.ListedToken",
          "name": "",
          "type": "tuple"
        }
      ],
      "stateMutability": "view",
      "type": "function"
    },
    {
      "inputs": [],
      "name": "getListPrice",
      "outputs": [
        {
          "internalType": "uint256",
          "name": "",
          "type": "uint256"
        }
      ],
      "stateMutability": "view",
      "type": "function"
    },
    {
      "inputs": [
        {
          "internalType": "uint256",
          "name": "tokenId",
          "type": "uint256"
        }
      ],
      "name": "getListedTokenForId",
      "outputs": [
        {
          "components": [
            {
              "internalType": "uint256",
              "name": "tokenId",
              "type": "uint256"
            },
            {
              "internalType": "address payable",
              "name": "owner",
              "type": "address"
            },
            {
              "internalType": "address payable",
              "name": "seller",
              "type": "address"
            },
            {
              "internalType": "uint256",
              "name": "price",
              "type": "uint256"
            },
            {
              "internalType": "bool",
              "name": "currentlyListed",
              "type": "bool"
            }
          ],
          "internalType": "struct NFTMarketplace.ListedToken",
          "name": "",
          "type": "tuple"
        }
      ],
      "stateMutability": "view",
      "type": "function"
    },
    {
      "inputs": [],
      "name": "getMyNFTs",
      "outputs": [
        {
          "components": [
            {
              "internalType": "uint256",
              "name": "tokenId",
              "type": "uint256"
            },
            {
              "internalType": "address payable",
              "name": "owner",
              "type": "address"
            },
            {
              "internalType": "address payable",
              "name": "seller",
              "type": "address"
            },
            {
              "internalType": "uint256",
              "name": "price",
              "type": "uint256"
            },
            {
              "internalType": "bool",
              "name": "currentlyListed",
              "type": "bool"
            }
          ],
          "internalType": "struct NFTMarketplace.ListedToken[]",
          "name": "",
          "type": "tuple[]"
        }
      ],
      "stateMutability": "view",
      "type": "function"
    },
    {
      "inputs": [
        {
          "internalType": "address",
          "name": "owner",
          "type": "address"
        },
        {
          "internalType": "address",
          "name": "operator",
          "type": "address"
        }
      ],
      "name": "isApprovedForAll",
      "outputs": [
        {
          "internalType": "bool",
          "name": "",
          "type": "bool"
        }
      ],
      "stateMutability": "view",
      "type": "function"
    },
    {
      "inputs": [],
      "name": "name",
      "outputs": [
        {
          "internalType": "string",
          "name": "",
          "type": "string"
        }
      ],
      "stateMutability": "view",
      "type": "function"
    },
    {
      "inputs": [
        {
          "internalType": "uint256",
          "name": "tokenId",
          "type": "uint256"
        }
      ],
      "name": "ownerOf",
      "outputs": [
        {
          "internalType": "address",
          "name": "",
          "type": "address"
        }
      ],
      "stateMutability": "view",
      "type": "function"
    },
    {
      "inputs": [
        {
          "internalType": "address",
          "name": "from",
          "type": "address"
        },
        {
          "internalType": "address",
          "name": "to",
          "type": "address"
        },
        {
          "internalType": "uint256",
          "name": "tokenId",
          "type": "uint256"
        }
      ],
      "name": "safeTransferFrom",
      "outputs": [],
      "stateMutability": "nonpayable",
      "type": "function"
    },
    {
      "inputs": [
        {
          "internalType": "address",
          "name": "from",
          "type": "address"
        },
        {
          "internalType": "address",
          "name": "to",
          "type": "address"
        },
        {
          "internalType": "uint256",
          "name": "tokenId",
          "type": "uint256"
        },
        {
          "internalType": "bytes",
          "name": "data",
          "type": "bytes"
        }
      ],
      "name": "safeTransferFrom",
      "outputs": [],
      "stateMutability": "nonpayable",
      "type": "function"
    },
    {
      "inputs": [
        {
          "internalType": "address",
          "name": "operator",
          "type": "address"
        },
        {
          "internalType": "bool",
          "name": "approved",
          "type": "bool"
        }
      ],
      "name": "setApprovalForAll",
      "outputs": [],
      "stateMutability": "nonpayable",
      "type": "function"
    },
    {
      "inputs": [
        {
          "internalType": "bytes4",
          "name": "interfaceId",
          "type": "bytes4"
        }
      ],
      "name": "supportsInterface",
      "outputs": [
        {
          "internalType": "bool",
          "name": "",
          "type": "bool"
        }
      ],
      "stateMutability": "view",
      "type": "function"
    },
    {
      "inputs": [],
      "name": "symbol",
      "outputs": [
        {
          "internalType": "string",
          "name": "",
          "type": "string"
        }
      ],
      "stateMutability": "view",
      "type": "function"
    },
    {
      "inputs": [
        {
          "internalType": "uint256",
          "name": "tokenId",
          "type": "uint256"
        }
      ],
      "name": "tokenURI",
      "outputs": [
        {
          "internalType": "string",
          "name": "",
          "type": "string"
        }
      ],
      "stateMutability": "view",
      "type": "function"
    },
    {
      "inputs": [
        {
          "internalType": "address",
          "name": "from",
          "type": "address"
        },
        {
          "internalType": "address",
          "name": "to",
          "type": "address"
        },
        {
          "internalType": "uint256",
          "name": "tokenId",
          "type": "uint256"
        }
      ],
      "name": "transferFrom",
      "outputs": [],
      "stateMutability": "nonpayable",
      "type": "function"
    },
    {
      "inputs": [
        {
          "internalType": "uint256",
          "name": "_listPrice",
          "type": "uint256"
        }
      ],
      "name": "updateListPrice",
      "outputs": [],
      "stateMutability": "payable",
      "type": "function"
    }
  ],
  "bytecode": "0x6080604052662386f26fc10000600a553480156200001c57600080fd5b50604080518082018252600e81526d4e46544d61726b6574706c61636560901b6020808301918252835180850190945260048452634e46544d60e01b9084015281519192916200006f91600091620000a0565b50805162000085906001906020840190620000a0565b5050600980546001600160a01b031916331790555062000183565b828054620000ae9062000146565b90600052602060002090601f016020900481019282620000d257600085556200011d565b82601f10620000ed57805160ff19168380011785556200011d565b828001600101855582156200011d579182015b828111156200011d57825182559160200191906001019062000100565b506200012b9291506200012f565b5090565b5b808211156200012b576000815560010162000130565b600181811c908216806200015b57607f821691505b602082108114156200017d57634e487b7160e01b600052602260045260246000fd5b50919050565b6121e780620001936000396000f3fe6080604052600436106101405760003560e01c80638e264590116100b6578063c87b56dd1161006f578063c87b56dd14610372578063d1a88ae514610392578063e0391b09146103a7578063e985e9c5146103bc578063ef2d174614610405578063f687ed571461041a57600080fd5b80638e264590146102ca57806395d89b41146102f75780639b1225c41461030c578063a22cb4651461031f578063b88d4fde1461033f578063c322579c1461035f57600080fd5b806342842e0e1161010857806342842e0e14610216578063629cb2e4146102365780636352211e1461025857806368f1945f1461027857806370a082311461029757806372b3b620146102b757600080fd5b806301ffc9a71461014557806306fdde031461017a578063081812fc1461019c578063095ea7b3146101d457806323b872dd146101f6575b600080fd5b34801561015157600080fd5b50610165610160366004611df3565b61043a565b60405190151581526020015b60405180910390f35b34801561018657600080fd5b5061018f61048c565b6040516101719190611fbf565b3480156101a857600080fd5b506101bc6101b7366004611e81565b61051e565b6040516001600160a01b039091168152602001610171565b3480156101e057600080fd5b506101f46101ef366004611dca565b610545565b005b34801561020257600080fd5b506101f4610211366004611cdc565b610660565b34801561022257600080fd5b506101f4610231366004611cdc565b610691565b34801561024257600080fd5b5061024b6106ac565b6040516101719190611f71565b34801561026457600080fd5b506101bc610273366004611e81565b6108ef565b34801561028457600080fd5b50600a545b604051908152602001610171565b3480156102a357600080fd5b506102896102b2366004611c90565b61094f565b6102896102c5366004611e2b565b6109d5565b3480156102d657600080fd5b506102ea6102e5366004611e81565b610a17565b6040516101719190612072565b34801561030357600080fd5b5061018f610a81565b6101f461031a366004611e81565b610a90565b34801561032b57600080fd5b506101f461033a366004611d90565b610bf4565b34801561034b57600080fd5b506101f461035a366004611d17565b610c03565b6101f461036d366004611e81565b610c35565b34801561037e57600080fd5b5061018f61038d366004611e81565b610ca0565b34801561039e57600080fd5b506102ea610db1565b3480156103b357600080fd5b5061024b610e28565b3480156103c857600080fd5b506101656103d7366004611caa565b6001600160a01b03918216600090815260056020908152604080832093909416825291909152205460ff1690565b34801561041157600080fd5b50610289610f6e565b34801561042657600080fd5b506101f4610435366004611e81565b610f7e565b60006001600160e01b031982166380ac58cd60e01b148061046b57506001600160e01b03198216635b5e139f60e01b145b8061048657506301ffc9a760e01b6001600160e01b03198316145b92915050565b60606000805461049b906120ef565b80601f01602080910402602001604051908101604052809291908181526020018280546104c7906120ef565b80156105145780601f106104e957610100808354040283529160200191610514565b820191906000526020600020905b8154815290600101906020018083116104f757829003601f168201915b5050505050905090565b600061052982610fd8565b506000908152600460205260409020546001600160a01b031690565b6000610550826108ef565b9050806001600160a01b0316836001600160a01b031614156105c35760405162461bcd60e51b815260206004820152602160248201527f4552433732313a20617070726f76616c20746f2063757272656e74206f776e656044820152603960f91b60648201526084015b60405180910390fd5b336001600160a01b03821614806105df57506105df81336103d7565b6106515760405162461bcd60e51b815260206004820152603e60248201527f4552433732313a20617070726f76652063616c6c6572206973206e6f7420746f60448201527f6b656e206f776e6572206e6f7220617070726f76656420666f7220616c6c000060648201526084016105ba565b61065b8383611037565b505050565b61066a33826110a5565b6106865760405162461bcd60e51b81526004016105ba90612024565b61065b838383611123565b61065b83838360405180602001604052806000815250610c03565b606060006106b960075490565b905060008080805b848110156107515733600b60006106d9846001612080565b81526020810191909152604001600020600101546001600160a01b0316148061072c575033600b600061070d846001612080565b81526020810191909152604001600020600201546001600160a01b0316145b1561073f5761073c600185612080565b93505b806107498161212a565b9150506106c1565b5060008367ffffffffffffffff81111561077b57634e487b7160e01b600052604160045260246000fd5b6040519080825280602002602001820160405280156107b457816020015b6107a1611b01565b8152602001906001900390816107995790505b50905060005b858110156108e55733600b60006107d2846001612080565b81526020810191909152604001600020600101546001600160a01b03161480610825575033600b6000610806846001612080565b81526020810191909152604001600020600201546001600160a01b0316145b156108d357610835816001612080565b6000818152600b6020908152604091829020825160a0810184528154815260018201546001600160a01b039081169382019390935260028201549092169282019290925260038201546060820152600482015460ff1615156080820152845192955090918490879081106108b957634e487b7160e01b600052603260045260246000fd5b60209081029190910101526108cf600186612080565b9450505b806108dd8161212a565b9150506107ba565b5095945050505050565b6000818152600260205260408120546001600160a01b0316806104865760405162461bcd60e51b8152602060048201526018602482015277115490cdcc8c4e881a5b9d985b1a59081d1bdad95b88125160421b60448201526064016105ba565b60006001600160a01b0382166109b95760405162461bcd60e51b815260206004820152602960248201527f4552433732313a2061646472657373207a65726f206973206e6f7420612076616044820152683634b21037bbb732b960b91b60648201526084016105ba565b506001600160a01b031660009081526003602052604090205490565b60006109e5600780546001019055565b60006109f060075490565b90506109fc33826112bf565b610a0681856112d9565b610a108184611373565b9392505050565b610a1f611b01565b506000908152600b6020908152604091829020825160a0810184528154815260018201546001600160a01b03908116938201939093526002820154909216928201929092526003820154606082015260049091015460ff161515608082015290565b60606001805461049b906120ef565b6000818152600b6020526040902060038101546002909101546001600160a01b0316348214610b29576040805162461bcd60e51b81526020600482015260248101919091527f506c65617365207375626d6974207468652061736b696e67207072696365206960448201527f6e206f7264657220746f20636f6d706c6574652074686520707572636861736560648201526084016105ba565b6000838152600b6020526040902060048101805460ff1916600117905560020180546001600160a01b03191633179055610b67600880546001019055565b610b72303385611123565b610b7c3084610545565b600954600a546040516001600160a01b039092169181156108fc0291906000818181858888f19350505050158015610bb8573d6000803e3d6000fd5b506040516001600160a01b038216903480156108fc02916000818181858888f19350505050158015610bee573d6000803e3d6000fd5b50505050565b610bff338383611515565b5050565b610c0d33836110a5565b610c295760405162461bcd60e51b81526004016105ba90612024565b610bee848484846115e4565b6009546001600160a01b03163314610c9b5760405162461bcd60e51b815260206004820152602360248201527f4f6e6c79206f776e65722063616e20757064617465206c697374696e6720707260448201526269636560e81b60648201526084016105ba565b600a55565b6060610cab82610fd8565b60008281526006602052604081208054610cc4906120ef565b80601f0160208091040260200160405190810160405280929190818152602001828054610cf0906120ef565b8015610d3d5780601f10610d1257610100808354040283529160200191610d3d565b820191906000526020600020905b815481529060010190602001808311610d2057829003601f168201915b505050505090506000610d5b60408051602081019091526000815290565b9050805160001415610d6e575092915050565b815115610da0578082604051602001610d88929190611f05565b60405160208183030381529060405292505050919050565b610da984611617565b949350505050565b610db9611b01565b6000610dc460075490565b6000908152600b6020908152604091829020825160a0810184528154815260018201546001600160a01b03908116938201939093526002820154909216928201929092526003820154606082015260049091015460ff161515608082015292915050565b60606000610e3560075490565b905060008167ffffffffffffffff811115610e6057634e487b7160e01b600052604160045260246000fd5b604051908082528060200260200182016040528015610e9957816020015b610e86611b01565b815260200190600190039081610e7e5790505b509050600080805b84811015610f6457610eb4816001612080565b6000818152600b6020908152604091829020825160a0810184528154815260018201546001600160a01b039081169382019390935260028201549092169282019290925260038201546060820152600482015460ff161515608082015286519294509091869086908110610f3857634e487b7160e01b600052603260045260246000fd5b6020908102919091010152610f4e600185612080565b9350508080610f5c9061212a565b915050610ea1565b5091949350505050565b6000610f7960075490565b905090565b610f8833826110a5565b610fcc5760405162461bcd60e51b81526020600482015260156024820152742737ba1030b8383937bb32b21037b91037bbb732b960591b60448201526064016105ba565b610fd58161168a565b50565b6000818152600260205260409020546001600160a01b0316610fd55760405162461bcd60e51b8152602060048201526018602482015277115490cdcc8c4e881a5b9d985b1a59081d1bdad95b88125160421b60448201526064016105ba565b600081815260046020526040902080546001600160a01b0319166001600160a01b038416908117909155819061106c826108ef565b6001600160a01b03167f8c5be1e5ebec7d5bd14f71427d1e84f3dd0314c0f7b2291e5b200ac8c7c3b92560405160405180910390a45050565b6000806110b1836108ef565b9050806001600160a01b0316846001600160a01b031614806110f857506001600160a01b0380821660009081526005602090815260408083209388168352929052205460ff165b80610da95750836001600160a01b03166111118461051e565b6001600160a01b031614949350505050565b826001600160a01b0316611136826108ef565b6001600160a01b03161461119a5760405162461bcd60e51b815260206004820152602560248201527f4552433732313a207472616e736665722066726f6d20696e636f72726563742060448201526437bbb732b960d91b60648201526084016105ba565b6001600160a01b0382166111fc5760405162461bcd60e51b8152602060048201526024808201527f4552433732313a207472616e7366657220746f20746865207a65726f206164646044820152637265737360e01b60648201526084016105ba565b611207600082611037565b6001600160a01b03831660009081526003602052604081208054600192906112309084906120ac565b90915550506001600160a01b038216600090815260036020526040812080546001929061125e908490612080565b909155505060008181526002602052604080822080546001600160a01b0319166001600160a01b0386811691821790925591518493918716917fddf252ad1be2c89b69c2b068fc378daa952ba7f163c4a11628f55a4df523b3ef91a4505050565b610bff8282604051806020016040528060008152506116ca565b6000828152600260205260409020546001600160a01b03166113545760405162461bcd60e51b815260206004820152602e60248201527f45524337323155524953746f726167653a2055524920736574206f66206e6f6e60448201526d32bc34b9ba32b73a103a37b5b2b760911b60648201526084016105ba565b6000828152600660209081526040909120825161065b92840190611b2f565b600a5434146113d05760405162461bcd60e51b815260206004820152602360248201527f486f706566756c6c792073656e64696e672074686520636f727265637420707260448201526269636560e81b60648201526084016105ba565b6000811161142b5760405162461bcd60e51b815260206004820152602260248201527f4d616b652073757265207468652070726963652069736e2774206e6567617469604482015261766560f01b60648201526084016105ba565b6040805160a081018252838152306020808301828152338486018181526060860188815260016080880181815260008c8152600b9097529890952096518755925193860180546001600160a01b039586166001600160a01b03199182161790915590516002870180549190951691161790925551600384015592516004909201805492151560ff19909316929092179091556114c8919084611123565b604080513081523360208201529081018290526001606082015282907f9339409317fd01fabff48b703019016f49159bacc801ae872d2ca637d226e4c09060800160405180910390a25050565b816001600160a01b0316836001600160a01b031614156115775760405162461bcd60e51b815260206004820152601960248201527f4552433732313a20617070726f766520746f2063616c6c65720000000000000060448201526064016105ba565b6001600160a01b03838116600081815260056020908152604080832094871680845294825291829020805460ff191686151590811790915591519182527f17307eab39ab6107e8899845ad3d59bd9653f200f220920489ca2b5937696c31910160405180910390a3505050565b6115ef848484611123565b6115fb848484846116fd565b610bee5760405162461bcd60e51b81526004016105ba90611fd2565b606061162282610fd8565b600061163960408051602081019091526000815290565b905060008151116116595760405180602001604052806000815250610a10565b806116638461180a565b604051602001611674929190611f05565b6040516020818303038152906040529392505050565b61169381611924565b600081815260066020526040902080546116ac906120ef565b159050610fd5576000818152600660205260408120610fd591611bb3565b6116d483836119bf565b6116e160008484846116fd565b61065b5760405162461bcd60e51b81526004016105ba90611fd2565b60006001600160a01b0384163b156117ff57604051630a85bd0160e11b81526001600160a01b0385169063150b7a0290611741903390899088908890600401611f34565b602060405180830381600087803b15801561175b57600080fd5b505af192505050801561178b575060408051601f3d908101601f1916820190925261178891810190611e0f565b60015b6117e5573d8080156117b9576040519150601f19603f3d011682016040523d82523d6000602084013e6117be565b606091505b5080516117dd5760405162461bcd60e51b81526004016105ba90611fd2565b805181602001fd5b6001600160e01b031916630a85bd0160e11b149050610da9565b506001949350505050565b60608161182e5750506040805180820190915260018152600360fc1b602082015290565b8160005b811561185857806118428161212a565b91506118519050600a83612098565b9150611832565b60008167ffffffffffffffff81111561188157634e487b7160e01b600052604160045260246000fd5b6040519080825280601f01601f1916602001820160405280156118ab576020820181803683370190505b5090505b8415610da9576118c06001836120ac565b91506118cd600a86612145565b6118d8906030612080565b60f81b8183815181106118fb57634e487b7160e01b600052603260045260246000fd5b60200101906001600160f81b031916908160001a90535061191d600a86612098565b94506118af565b600061192f826108ef565b905061193c600083611037565b6001600160a01b03811660009081526003602052604081208054600192906119659084906120ac565b909155505060008281526002602052604080822080546001600160a01b0319169055518391906001600160a01b038416907fddf252ad1be2c89b69c2b068fc378daa952ba7f163c4a11628f55a4df523b3ef908390a45050565b6001600160a01b038216611a155760405162461bcd60e51b815260206004820181905260248201527f4552433732313a206d696e7420746f20746865207a65726f206164647265737360448201526064016105ba565b6000818152600260205260409020546001600160a01b031615611a7a5760405162461bcd60e51b815260206004820152601c60248201527f4552433732313a20746f6b656e20616c7265616479206d696e7465640000000060448201526064016105ba565b6001600160a01b0382166000908152600360205260408120805460019290611aa3908490612080565b909155505060008181526002602052604080822080546001600160a01b0319166001600160a01b03861690811790915590518392907fddf252ad1be2c89b69c2b068fc378daa952ba7f163c4a11628f55a4df523b3ef908290a45050565b6040805160a08101825260008082526020820181905291810182905260608101829052608081019190915290565b828054611b3b906120ef565b90600052602060002090601f016020900481019282611b5d5760008555611ba3565b82601f10611b7657805160ff1916838001178555611ba3565b82800160010185558215611ba3579182015b82811115611ba3578251825591602001919060010190611b88565b50611baf929150611be9565b5090565b508054611bbf906120ef565b6000825580601f10611bcf575050565b601f016020900490600052602060002090810190610fd591905b5b80821115611baf5760008155600101611bea565b600067ffffffffffffffff80841115611c1957611c19612185565b604051601f8501601f19908116603f01168101908282118183101715611c4157611c41612185565b81604052809350858152868686011115611c5a57600080fd5b858560208301376000602087830101525050509392505050565b80356001600160a01b0381168114611c8b57600080fd5b919050565b600060208284031215611ca1578081fd5b610a1082611c74565b60008060408385031215611cbc578081fd5b611cc583611c74565b9150611cd360208401611c74565b90509250929050565b600080600060608486031215611cf0578081fd5b611cf984611c74565b9250611d0760208501611c74565b9150604084013590509250925092565b60008060008060808587031215611d2c578081fd5b611d3585611c74565b9350611d4360208601611c74565b925060408501359150606085013567ffffffffffffffff811115611d65578182fd5b8501601f81018713611d75578182fd5b611d8487823560208401611bfe565b91505092959194509250565b60008060408385031215611da2578182fd5b611dab83611c74565b915060208301358015158114611dbf578182fd5b809150509250929050565b60008060408385031215611ddc578182fd5b611de583611c74565b946020939093013593505050565b600060208284031215611e04578081fd5b8135610a108161219b565b600060208284031215611e20578081fd5b8151610a108161219b565b60008060408385031215611e3d578182fd5b823567ffffffffffffffff811115611e53578283fd5b8301601f81018513611e63578283fd5b611e7285823560208401611bfe565b95602094909401359450505050565b600060208284031215611e92578081fd5b5035919050565b60008151808452611eb18160208601602086016120c3565b601f01601f19169290920160200192915050565b805182526020808201516001600160a01b039081169184019190915260408083015190911690830152606080820151908301526080908101511515910152565b60008351611f178184602088016120c3565b835190830190611f2b8183602088016120c3565b01949350505050565b6001600160a01b0385811682528416602082015260408101839052608060608201819052600090611f6790830184611e99565b9695505050505050565b6020808252825182820181905260009190848201906040850190845b81811015611fb357611fa0838551611ec5565b9284019260a09290920191600101611f8d565b50909695505050505050565b602081526000610a106020830184611e99565b60208082526032908201527f4552433732313a207472616e7366657220746f206e6f6e20455243373231526560408201527131b2b4bb32b91034b6b83632b6b2b73a32b960711b606082015260800190565b6020808252602e908201527f4552433732313a2063616c6c6572206973206e6f7420746f6b656e206f776e6560408201526d1c881b9bdc88185c1c1c9bdd995960921b606082015260800190565b60a081016104868284611ec5565b6000821982111561209357612093612159565b500190565b6000826120a7576120a761216f565b500490565b6000828210156120be576120be612159565b500390565b60005b838110156120de5781810151838201526020016120c6565b83811115610bee5750506000910152565b600181811c9082168061210357607f821691505b6020821081141561212457634e487b7160e01b600052602260045260246000fd5b50919050565b600060001982141561213e5761213e612159565b5060010190565b6000826121545761215461216f565b500690565b634e487b7160e01b600052601160045260246000fd5b634e487b7160e01b600052601260045260246000fd5b634e487b7160e01b600052604160045260246000fd5b6001600160e01b031981168114610fd557600080fdfea264697066735822122030c2c451ada29918ab868464248698923b377f18a9951fbb0032130feccc711764736f6c63430008040033",
  "linkReferences": {},
  "deployedLinkReferences": {}
}